:020000040000FA
:060000000A128A110C280F
:10000800FE00030EF3000A08F4000A128A11FA2807
:100018000A128A110F28F501F601F701F801831277
:100028000313A601A70183010A128A11B9288312B2
:100038000313A2009F131F1776289F121F129F11E8
:100048001F11B0289F121F129F111F15B0289F1251
:100058001F129F151F11B0289F121F129F151F15E1
:10006800B0289F121F169F111F11B0289F121F162C
:100078009F111F15B0289F121F169F151F11B0281A
:100088009F121F169F151F15B0289F161F129F112C
:100098001F11B0289F161F129F111F15B0289F16F9
:1000A8001F129F151F11B0289F161F129F151F158D
:1000B800B0289F161F169F111F11B0289F161F16D4
:1000C8009F111F15B0289F161F169F151F11B028C6
:1000D8009F161F169F151F15B0289F121F129F11DC
:1000E8001F11B0282208A000A1012108003A031915
:1000F8007E2871282008003A03192128013A03199B
:100108002628033A03192B28013A03193028073AFD
:1001180003193528013A03193A28033A03193F28E5
:10012800013A031944280F3A03194928013A0319D7
:100138004E28033A03195328013A03195828073A55
:1001480003195D28013A03196228033A031967283D
:10015800013A03196C287128831603139F139F1201
:100168001F12831203131F1408000A128A112A216E
:100178000A128A1100300A128A111B200A128A11E7
:10018800831203130C139F141E08A400A50124084E
:10019800F5002508F600073083120313A5007C300C
:1001A800A400A40BD528A50BD528000001300A12FD
:1001B8008A111B200A128A11831203130C139F142D
:1001C8001E08A400A5012408A6002508A7000730DA
:1001D80083120313A5007C30A400A40BF128A50BFF
:1001E800F1280000BE280A128A110C288312031372
:1001F8008C1DFF28002923290A128A1170210A124E
:100208008A11F100F2017108F7007208F80077030B
:100218007804031D10291129182975080A128A1152
:1002280080210A128A1120298312031326080A1230
:100238008A1180210A128A11831203138C117408FF
:100248008A00730E8300FE0E7E0E090003308316AB
:1002580003138500033083160317880018308316AC
:1002680003138700831603178901831603139F015D
:1002780083120313850187018B170B178C118316C3
:1002880003138C1583120313A001A101A2012530C9
:100298000A128A1152210A128A11080083120313C2
:1002A800A30083160313871283120313231D5D29EA
:1002B8005E296429220883160313940087156A2986
:1002C8002008220483160313940087118312031352
:1002D80023082104940008000A128A1179210A12BD
:1002E8008A11831203131308080083160313141CBE
:1002F8007E297F2979290800F000700883120313EA
:040308009300080056
:04400E00F5E0FFFFDB
:00000001FF
