:020000040000FA
:060000000A128A11F62F1E
:100E8000F6007608831203139300080083160313F9
:100E9000141C4B2F4C2F462F08000A128A1146278C
:100EA0000A128A118312031313080800F90083162B
:100EB00003138712791D5D2F5E2F622F780894002F
:100EC0008715662F760878049400871179087704CF
:100ED00083120313940008008316031318121815C5
:100EE0009816831603178715673083160313990026
:100EF0009A018312031398171813181683160313F5
:100F00008C16831203138C120800831603138601B8
:100F10001030870083160317880189018312031399
:100F200086018701831603139F01F601F701F8017B
:100F300020300A128A1156270A128A1108000A1252
:100F40008A116C270A128A110A128A1185270A123D
:100F50008A1101300A128A1140270A128A110A12D4
:100F60008A114D270A128A11FA00FB017A08F4004F
:100F70007B08F5000730FB007D30FA00FA0BBE2F2E
:100F8000FB0BBE2F00300A128A1140270A128A1169
:100F90000A128A114D270A128A11FA00FB017A08F7
:100FA000F2007B08F3000730FB007D30FA00FA0BFB
:100FB000D72FFB0BD72F74088312031399000C1E35
:100FC000E22FE32FDF2F720899000C1EE82FE92F84
:100FD000E52F1A08FA00FB017A08F0007B08F100FF
:100FE00070088600A92F0A128A110028F001F10169
:100FF000F201F301F401F50183010A128A119F2F16
:04400E00F5E0FFFFDB
:00000001FF
